:030000000201D426
:0C01D400787FE4F6D8FD75812302021B41
:0B0532001204F81204DF12048580FBA5
:10045E00E47B4CFAEF1F8E8370011E45836017E418
:10046E00FCFDC3ED9BEA6480F8EC64809850E50DCA
:06047E00BD00010C80EC42
:010484002255
:1003FC00E52015207002151FE52015207002151F31
:10040C00E52015207002151FE52015207002151F20
:10041C00E52015207002151FE52015207002151F10
:01042C0022AD
:09053D00D280D281D283D2822245
:09054600D282C283D281C280225C
:09054F00C282D283C281D2802253
:10039400EE7031EF14601314601914601F2403709D
:1003A40023C280C282D281D28322D282D280D281DD
:1003B400C28322D281D283D282C28022D280D282CC
:0503C400C281C283228A
:1002E400ED4C7004FAFB80047A007B01EE7064EF3D
:1002F40014B40800505D90030875F003A4C5832569
:10030400F0C5837302032002032702032E02033580
:1003140002033C02034302034A020351EA4B24FF53
:10032400929022EA4B24FF929122EA4B24FF92926C
:1003340022EA4B24FF929322EA4B24FF929422EA6E
:100344004B24FF929522EA4B24FF929622EA4B24F7
:03035400FF92977E
:010357002283
:080260008E088F098C0A8D0B3A
:10026800750C00750D01751200751301E4F510F594
:1002780011C3E5119509E5109508505FC3E495137E
:10028800F513E49512F512E4F50EF50FE513640184
:1002980045127010AF0FAE0DEEA807088002C333E9
:1002A800D8FC8012C37407950FFFAE0DEEA807089F
:1002B8008002C333D8FCF4F590AF0BAE0A12045E8B
:1002C800050FE50F7002050EC39408E50E94004073
:0B02D800BB0511E511709A051080961F
:0102E30022F8
:04001F00E4F5902252
:04055E007590FF2273
:0403C9008E1B8F1CDC
:1003CD00E4F51DF51EC3E51E951CE51D951B501E80
:1003DD0012001F7F147E0012045E12055E7F147ED4
:0E03ED000012045E051EE51E70DB051D80D7A4
:0103FB0022DF
:10042D0020A10830A3057E007F012230A10820A362
:10043D00057E007F022220A10820A3057E007F03F8
:10044D002230A10830A3057E007F04227EFF7FFFAE
:01045D00227C
:10035800E524640845237003FEFF2220A10B20A397
:100368000875170075180180E730A10A20A307E473
:10037800F517F51880DA20A10B30A308751700755A
:0C038800180980CC75170075180580C49A
:10000E00011932011A0001153201160002170005FE
:070003008F14E51470FC22CC
:1004A50020B3197F0A12000320B30E74052519F530
:0D04B50019C39464400375196430B3FD222F
:1004C20020B4197F0A12000320B40E74FB2519F51B
:0D04D20019D394005003E4F51930B4FD2255
:0F05080074052519F519C394644003751964220D
:0F05170074FB2519F519D3940A500375190A229C
:1004F800758901758CFC758A18D28CD2A9D2AF2265
:03000B00020026CA
:10002600C0E0C0D0C28C758A18758CFCD28CE514E1
:1000360060021514E518640145177024C280C28356
:10004600051AE51AC395195006D281D2828004C2D8
:1000560081C282E51AC39464500302014202012D53
:10006600E518640345177022C283D281D280051A2F
:10007600E51AC395195004D2828002C282E51AC3DA
:100086009464500302014202012DE51864044517E9
:100096007021C280C283C282051AE51AC39519501F
:1000A60004D2818002C281E51AC39464500302011E
:1000B600428074E518640245177020C281C2820529
:1000C6001AE51AC395195006D280D2838004C280DD
:1000D600C283E51AC394644063804CE518640945FD
:1000E600177020C281C283051AE51AC395195006F6
:1000F600D280D2828004C280C282E51AC394644050
:100106003B8024E51845177023C280C282051AE594
:100116001AC395195006D281D2838004C281C28344
:10012600E51AC394644015751A008010E518640535
:1001360045177008D283D282D281D280D0D0D0E047
:010146003286
:10014700852322E522B4010875170075180180F090
:10015700E522B4030875170075180380E3E522B498
:10016700040875170075180480D6E522B4050875CC
:10017700170075180580C9E522B4060D120508E5B4
:1001870022B406BC85232280F6E522B4070E1205A9
:1001970017E522640770A985232280F5E522B402BA
:1001A700087517007518028097E522B40804E4FE65
:1001B700FF22E522B409087517007518098081E543
:0D01C700226003020147F517F518020147F9
:10048500852321E521B4010812055E120147800B81
:10049500E521B4020612055E12035812001F80E022
:1004DF0053890F438920758DFD758BFDD28E7598CD
:0904EF005053877FD2AFD2AC223A
:0C052600C2AC8F993099FDC299D2AC2272
:030023000205587B
:06055800C29885992332D0
:1001E000020532E493A3F8E493A34003F68001F2FE
:1001F00008DFF48029E493A3F85407240CC8C33320
:10020000C4540F4420C8834004F456800146F6DFEE
:10021000E4800B010204081020408090000EE47E70
:10022000019360BCA3FF543F30E509541FFEE493E3
:10023000A360010ECF54C025E060A840B8E493A3AA
:10024000FAE493A3F8E493A3C8C582C8CAC583CAD5
:10025000F0A3C8C582C8CAC583CADFE9DEE780BE8D
:01001E0000E1
:00000001FF
